{
  "contractName": "SimpleLendingContract",
  "abi": [
    {
      "inputs": [],
      "name": "availableBalance",
      "outputs": [
        {
          "internalType": "uint256",
          "name": "",
          "type": "uint256"
        }
      ],
      "stateMutability": "view",
      "type": "function",
      "constant": true
    },
    {
      "inputs": [
        {
          "internalType": "address",
          "name": "",
          "type": "address"
        }
      ],
      "name": "lenderBalances",
      "outputs": [
        {
          "internalType": "uint256",
          "name": "",
          "type": "uint256"
        }
      ],
      "stateMutability": "view",
      "type": "function",
      "constant": true
    },
    {
      "inputs": [
        {
          "internalType": "address",
          "name": "",
          "type": "address"
        }
      ],
      "name": "loans",
      "outputs": [
        {
          "internalType": "address",
          "name": "borrower",
          "type": "address"
        },
        {
          "internalType": "uint256",
          "name": "requestedAmount",
          "type": "uint256"
        },
        {
          "internalType": "uint256",
          "name": "repayAmount",
          "type": "uint256"
        },
        {
          "internalType": "uint256",
          "name": "interestRate",
          "type": "uint256"
        },
        {
          "internalType": "enum SimpleLendingContract.LoanState",
          "name": "state",
          "type": "uint8"
        },
        {
          "internalType": "uint256",
          "name": "requestedDate",
          "type": "uint256"
        }
      ],
      "stateMutability": "view",
      "type": "function",
      "constant": true
    },
    {
      "inputs": [],
      "name": "addFunds",
      "outputs": [],
      "stateMutability": "payable",
      "type": "function",
      "payable": true
    },
    {
      "inputs": [
        {
          "internalType": "uint256",
          "name": "amount",
          "type": "uint256"
        }
      ],
      "name": "withdrawFunds",
      "outputs": [],
      "stateMutability": "nonpayable",
      "type": "function"
    },
    {
      "inputs": [
        {
          "internalType": "uint256",
          "name": "amount",
          "type": "uint256"
        }
      ],
      "name": "requestLoan",
      "outputs": [],
      "stateMutability": "nonpayable",
      "type": "function"
    },
    {
      "inputs": [
        {
          "internalType": "address",
          "name": "borrower",
          "type": "address"
        }
      ],
      "name": "getLoanDetails",
      "outputs": [
        {
          "components": [
            {
              "internalType": "address",
              "name": "borrower",
              "type": "address"
            },
            {
              "internalType": "uint256",
              "name": "requestedAmount",
              "type": "uint256"
            },
            {
              "internalType": "uint256",
              "name": "repayAmount",
              "type": "uint256"
            },
            {
              "internalType": "uint256",
              "name": "interestRate",
              "type": "uint256"
            },
            {
              "internalType": "enum SimpleLendingContract.LoanState",
              "name": "state",
              "type": "uint8"
            },
            {
              "internalType": "uint256",
              "name": "requestedDate",
              "type": "uint256"
            }
          ],
          "internalType": "struct SimpleLendingContract.Loan",
          "name": "",
          "type": "tuple"
        }
      ],
      "stateMutability": "view",
      "type": "function",
      "constant": true
    },
    {
      "inputs": [
        {
          "internalType": "address",
          "name": "borrower",
          "type": "address"
        }
      ],
      "name": "getRepayAmount",
      "outputs": [
        {
          "internalType": "uint256",
          "name": "",
          "type": "uint256"
        }
      ],
      "stateMutability": "view",
      "type": "function",
      "constant": true
    },
    {
      "inputs": [],
      "name": "repayLoan",
      "outputs": [],
      "stateMutability": "payable",
      "type": "function",
      "payable": true
    },
    {
      "inputs": [],
      "name": "getContractBalance",
      "outputs": [
        {
          "internalType": "uint256",
          "name": "",
          "type": "uint256"
        }
      ],
      "stateMutability": "view",
      "type": "function",
      "constant": true
    }
  ],
  "bytecode": "0x608060405234801561001057600080fd5b506112ba806100206000396000f3fe6080604052600436106100915760003560e01c8063a26759cb11610059578063a26759cb14610192578063a27a944d1461019c578063ab2f0e51146101d9578063e8a7da8e14610204578063f966ade71461024157610091565b8063155dd5ee146100965780636f9fb98a146100bf57806373b4086b146100ea5780638d5d34291461012c5780639be5b2bd14610155575b600080fd5b3480156100a257600080fd5b506100bd60048036038101906100b89190610c73565b61024b565b005b3480156100cb57600080fd5b506100d461040c565b6040516100e19190610caf565b60405180910390f35b3480156100f657600080fd5b50610111600480360381019061010c9190610d28565b610414565b60405161012396959493929190610ddb565b60405180910390f35b34801561013857600080fd5b50610153600480360381019061014e9190610c73565b61047d565b005b34801561016157600080fd5b5061017c60048036038101906101779190610d28565b610813565b6040516101899190610caf565b60405180910390f35b61019a610863565b005b3480156101a857600080fd5b506101c360048036038101906101be9190610d28565b610915565b6040516101d09190610caf565b60405180910390f35b3480156101e557600080fd5b506101ee61092d565b6040516101fb9190610caf565b60405180910390f35b34801561021057600080fd5b5061022b60048036038101906102269190610d28565b610933565b6040516102389190610ee4565b60405180910390f35b610249610a1f565b005b600160003373ffffffffffffffffffffffffffffffffffffffff1673ffffffffffffffffffffffffffffffffffffffff168152602001908152602001600020548111156102cd576040517f08c379a00000000000000000000000000000000000000000000000000000000081526004016102c490610f5c565b60405180910390fd5b600254811115610312576040517f08c379a000000000000000000000000000000000000000000000000000000000815260040161030990610fc8565b60405180910390fd5b61036481600160003373ffffffffffffffffffffffffffffffffffffffff1673ffffffffffffffffffffffffffffffffffffffff16815260200190815260200160002054610b6a90919063ffffffff16565b600160003373ffffffffffffffffffffffffffffffffffffffff1673ffffffffffffffffffffffffffffffffffffffff168152602001908152602001600020819055506103bc81600254610b6a90919063ffffffff16565b6002819055503373ffffffffffffffffffffffffffffffffffffffff166108fc829081150290604051600060405180830381858888f19350505050158015610408573d6000803e3d6000fd5b5050565b600047905090565b60006020528060005260406000206000915090508060000160009054906101000a900473ffffffffffffffffffffffffffffffffffffffff16908060010154908060020154908060030154908060040160009054906101000a900460ff16908060050154905086565b600081116104c0576040517f08c379a00000000000000000000000000000000000000000000000000000000081526004016104b79061105a565b60405180910390fd5b600160048111156104d4576104d3610d64565b5b6000803373ffffffffffffffffffffffffffffffffffffffff1673ffffffffffffffffffffffffffffffffffffffff16815260200190815260200160002060040160009054906101000a900460ff16600481111561053557610534610d64565b5b141580156105b657506002600481111561055257610551610d64565b5b6000803373ffffffffffffffffffffffffffffffffffffffff1673ffffffffffffffffffffffffffffffffffffffff16815260200190815260200160002060040160009054906101000a900460ff1660048111156105b3576105b2610d64565b5b14155b6105f5576040517f08c379a00000000000000000000000000000000000000000000000000000000081526004016105ec906110c6565b60405180910390fd5b600061060082610b91565b90506040518060c001604052803373ffffffffffffffffffffffffffffffffffffffff16815260200183815260200182815260200160028152602001600160048111156106505761064f610d64565b5b8152602001428152506000803373ffffffffffffffffffffffffffffffffffffffff1673ffffffffffffffffffffffffffffffffffffffff16815260200190815260200160002060008201518160000160006101000a81548173ffffffffffffffffffffffffffffffffffffffff021916908373ffffffffffffffffffffffffffffffffffffffff16021790555060208201518160010155604082015181600201556060820151816003015560808201518160040160006101000a81548160ff0219169083600481111561072757610726610d64565b5b021790555060a08201518160050155905050816002541061080f573373ffffffffffffffffffffffffffffffffffffffff166108fc839081150290604051600060405180830381858888f19350505050158015610788573d6000803e3d6000fd5b5060026000803373ffffffffffffffffffffffffffffffffffffffff1673ffffffffffffffffffffffffffffffffffffffff16815260200190815260200160002060040160006101000a81548160ff021916908360048111156107ee576107ed610d64565b5b021790555061080882600254610b6a90919063ffffffff16565b6002819055505b5050565b6000806000808473ffffffffffffffffffffffffffffffffffffffff1673ffffffffffffffffffffffffffffffffffffffff16815260200190815260200160002090508060020154915050919050565b61087834600254610bae90919063ffffffff16565b6002819055506108d034600160003373ffffffffffffffffffffffffffffffffffffffff1673ffffffffffffffffffffffffffffffffffffffff16815260200190815260200160002054610bae90919063ffffffff16565b600160003373ffffffffffffffffffffffffffffffffffffffff1673ffffffffffffffffffffffffffffffffffffffff16815260200190815260200160002081905550565b60016020528060005260406000206000915090505481565b60025481565b61093b610bda565b60008060008473ffffffffffffffffffffffffffffffffffffffff1673ffffffffffffffffffffffffffffffffffffffff16815260200190815260200160002090506040518060c001604052808260000160009054906101000a900473ffffffffffffffffffffffffffffffffffffffff1673ffffffffffffffffffffffffffffffffffffffff1681526020018260010154815260200182600201548152602001826003015481526020018260040160009054906101000a900460ff166004811115610a0a57610a09610d64565b5b81526020018260050154815250915050919050565b60008060003373ffffffffffffffffffffffffffffffffffffffff1673ffffffffffffffffffffffffffffffffffffffff168152602001908152602001600020905060026004811115610a7557610a74610d64565b5b8160040160009054906101000a900460ff166004811115610a9957610a98610d64565b5b14610ad9576040517f08c379a0000000000000000000000000000000000000000000000000000000008152600401610ad090611132565b60405180910390fd5b80600201543414610b1f576040517f08c379a0000000000000000000000000000000000000000000000000000000008152600401610b169061119e565b60405180910390fd5b610b3434600254610bae90919063ffffffff16565b60028190555060038160040160006101000a81548160ff02191690836004811115610b6257610b61610d64565b5b021790555050565b600082821115610b7d57610b7c6111be565b5b8183610b89919061121c565b905092915050565b6000671bc16d674ec8000082610ba79190611250565b9050919050565b6000808284610bbd9190611250565b905083811015610bd057610bcf6111be565b5b8091505092915050565b6040518060c00160405280600073ffffffffffffffffffffffffffffffffffffffff16815260200160008152602001600081526020016000815260200160006004811115610c2b57610c2a610d64565b5b8152602001600081525090565b600080fd5b6000819050919050565b610c5081610c3d565b8114610c5b57600080fd5b50565b600081359050610c6d81610c47565b92915050565b600060208284031215610c8957610c88610c38565b5b6000610c9784828501610c5e565b91505092915050565b610ca981610c3d565b82525050565b6000602082019050610cc46000830184610ca0565b92915050565b600073ffffffffffffffffffffffffffffffffffffffff82169050919050565b6000610cf582610cca565b9050919050565b610d0581610cea565b8114610d1057600080fd5b50565b600081359050610d2281610cfc565b92915050565b600060208284031215610d3e57610d3d610c38565b5b6000610d4c84828501610d13565b91505092915050565b610d5e81610cea565b82525050565b7f4e487b7100000000000000000000000000000000000000000000000000000000600052602160045260246000fd5b60058110610da457610da3610d64565b5b50565b6000819050610db582610d93565b919050565b6000610dc582610da7565b9050919050565b610dd581610dba565b82525050565b600060c082019050610df06000830189610d55565b610dfd6020830188610ca0565b610e0a6040830187610ca0565b610e176060830186610ca0565b610e246080830185610dcc565b610e3160a0830184610ca0565b979650505050505050565b610e4581610cea565b82525050565b610e5481610c3d565b82525050565b610e6381610dba565b82525050565b60c082016000820151610e7f6000850182610e3c565b506020820151610e926020850182610e4b565b506040820151610ea56040850182610e4b565b506060820151610eb86060850182610e4b565b506080820151610ecb6080850182610e5a565b5060a0820151610ede60a0850182610e4b565b50505050565b600060c082019050610ef96000830184610e69565b92915050565b600082825260208201905092915050565b7f496e73756666696369656e742062616c616e636520746f207769746864726177600082015250565b6000610f46602083610eff565b9150610f5182610f10565b602082019050919050565b60006020820190508181036000830152610f7581610f39565b9050919050565b7f496e73756666696369656e7420706f6f6c206c69717569646974790000000000600082015250565b6000610fb2601b83610eff565b9150610fbd82610f7c565b602082019050919050565b60006020820190508181036000830152610fe181610fa5565b9050919050565b7f4c6f616e20616d6f756e74206d7573742062652067726561746572207468616e60008201527f2030000000000000000000000000000000000000000000000000000000000000602082015250565b6000611044602283610eff565b915061104f82610fe8565b604082019050919050565b6000602082019050818103600083015261107381611037565b9050919050565b7f50726576696f7573206c6f616e206d75737420626520636c6f73656400000000600082015250565b60006110b0601c83610eff565b91506110bb8261107a565b602082019050919050565b600060208201905081810360008301526110df816110a3565b9050919050565b7f4c6f616e206973206e6f7420696e207468652066756e64656420737461746500600082015250565b600061111c601f83610eff565b9150611127826110e6565b602082019050919050565b6000602082019050818103600083015261114b8161110f565b9050919050565b7f496e636f72726563742072657061796d656e7420616d6f756e74000000000000600082015250565b6000611188601a83610eff565b915061119382611152565b602082019050919050565b600060208201905081810360008301526111b78161117b565b9050919050565b7f4e487b7100000000000000000000000000000000000000000000000000000000600052600160045260246000fd5b7f4e487b7100000000000000000000000000000000000000000000000000000000600052601160045260246000fd5b600061122782610c3d565b915061123283610c3d565b925082820390508181111561124a576112496111ed565b5b92915050565b600061125b82610c3d565b915061126683610c3d565b925082820190508082111561127e5761127d6111ed565b5b9291505056fea26469706673582212209633fc5e29e463dd1dd12d4ccb4ebbf4d3f465e13ef9161f20c6aa36d1ef4f6a64736f6c63430008130033",
  "immutableReferences": {},
  "source": "// SPDX-License-Identifier: MIT\npragma solidity ^0.8.19;\n\nimport './SafeMath.sol';\n\ncontract SimpleLendingContract {\n\n    using SafeMath for uint;\n\n    // Enum to represent the state of the loan\n    enum LoanState { None, Requested, Funded, Repaid, Defaulted }\n\n    // Struct to represent the loan details\n    struct Loan {\n        address borrower;\n        uint requestedAmount;\n        uint repayAmount;\n        uint interestRate; // in percentage\n        LoanState state;\n        uint requestedDate;\n    }\n\n    // Mapping to store loans by borrower address\n    mapping(address => Loan) public loans;\n\n    // Mapping to track each lender's balance in the pool\n    mapping(address => uint) public lenderBalances;\n\n    // Variable to store the available balance in the contract\n    uint public availableBalance;\n\n    // Function to add funds to the contract\n    function addFunds() public payable {\n        availableBalance = availableBalance.add(msg.value);\n        lenderBalances[msg.sender] = lenderBalances[msg.sender].add(msg.value);\n    }\n\n    // Function for lenders to withdraw their money\n    function withdrawFunds(uint amount) public {\n        require(amount <= lenderBalances[msg.sender], \"Insufficient balance to withdraw\");\n        require(amount <= availableBalance, \"Insufficient pool liquidity\");\n\n        lenderBalances[msg.sender] = lenderBalances[msg.sender].sub(amount);\n        availableBalance = availableBalance.sub(amount);\n        \n        payable(msg.sender).transfer(amount);\n    }\n\n    // Function to request a loan\n    function requestLoan(uint amount) public {\n        require(amount > 0, \"Loan amount must be greater than 0\");\n        require(loans[msg.sender].state != LoanState.Requested && loans[msg.sender].state != LoanState.Funded, \"Previous loan must be closed\");\n\n        // Calculate repay amount\n        uint repayAmount = calculateRepayAmount(amount);\n\n        // Create a new loan\n        loans[msg.sender] = Loan({\n            borrower: msg.sender,\n            requestedAmount: amount,\n            repayAmount: repayAmount,\n            interestRate: 2,\n            state: LoanState.Requested,\n            requestedDate: block.timestamp\n        });\n\n        // Auto fund the loan if enough balance\n        if (availableBalance >= amount) {\n            // Transfer the loan amount to borrower\n            payable(msg.sender).transfer(amount);\n\n            // Update state\n            loans[msg.sender].state = LoanState.Funded;\n\n            // Reduce from pool\n            availableBalance = availableBalance.sub(amount);\n        }\n    }\n\n    // Function to get loan details in a more readable format\n    function getLoanDetails(address borrower) external view returns (Loan memory) {\n        Loan storage loan = loans[borrower];\n        return Loan({\n            borrower: loan.borrower,\n            requestedAmount: loan.requestedAmount,\n            repayAmount: loan.repayAmount,\n            interestRate: loan.interestRate,\n            state: loan.state,\n            requestedDate: loan.requestedDate\n        });\n    }\n\n    // Function to get the repay amount for a loan\n    function getRepayAmount(address borrower) external view returns (uint) {\n        Loan storage loan = loans[borrower];\n        return loan.repayAmount;\n    }\n\n    // Function to repay a loan\n    function repayLoan() public payable {\n        // Get the loan details\n        Loan storage loan = loans[msg.sender];\n\n        // Check if the loan is in the funded state\n        require(loan.state == LoanState.Funded, \"Loan is not in the funded state\");\n\n        // Check if the repayment amount is sufficient\n        require(msg.value == loan.repayAmount, \"Incorrect repayment amount\");\n\n        // Return money to the pool\n        availableBalance = availableBalance.add(msg.value);\n\n        // Update loan state to repaid\n        loan.state = LoanState.Repaid;\n    }\n\n    // Function to calculate the repay amount based on loan details\n    function calculateRepayAmount(uint amount) internal pure returns (uint) {\n        // Add the amount and a constant interest of 2 ethers\n        return amount + 2 ether;\n    }\n\n    function getContractBalance() public view returns (uint256) {\n        return address(this).balance;\n    }\n}\n",
  "sourcePath": "C:\\Users\\khali\\OneDrive\\Desktop\\Projects\\Decetralized-ULI-main\\contracts\\SimpleLendingContract.sol",
  "compiler": {
    "name": "solc",
    "version": "0.8.19+commit.7dd6d404.Emscripten.clang"
  },
  "schemaVersion": "3.4.16",
  "updatedAt": "2026-04-09T13:29:26.023Z",
  "networkType": "ethereum",
  "devdoc": {
    "kind": "dev",
    "methods": {},
    "version": 1
  },
  "userdoc": {
    "kind": "user",
    "methods": {},
    "version": 1
  }
}