{
  "contractName": "SimpleLendingContract",
  "abi": [
    {
      "inputs": [],
      "name": "availableBalance",
      "outputs": [
        {
          "internalType": "uint256",
          "name": "",
          "type": "uint256"
        }
      ],
      "stateMutability": "view",
      "type": "function",
      "constant": true
    },
    {
      "inputs": [
        {
          "internalType": "address",
          "name": "",
          "type": "address"
        }
      ],
      "name": "lenderBalances",
      "outputs": [
        {
          "internalType": "uint256",
          "name": "",
          "type": "uint256"
        }
      ],
      "stateMutability": "view",
      "type": "function",
      "constant": true
    },
    {
      "inputs": [
        {
          "internalType": "address",
          "name": "",
          "type": "address"
        }
      ],
      "name": "loans",
      "outputs": [
        {
          "internalType": "address",
          "name": "borrower",
          "type": "address"
        },
        {
          "internalType": "uint256",
          "name": "requestedAmount",
          "type": "uint256"
        },
        {
          "internalType": "uint256",
          "name": "repayAmount",
          "type": "uint256"
        },
        {
          "internalType": "uint256",
          "name": "interestRate",
          "type": "uint256"
        },
        {
          "internalType": "enum SimpleLendingContract.LoanState",
          "name": "state",
          "type": "uint8"
        },
        {
          "internalType": "uint256",
          "name": "requestedDate",
          "type": "uint256"
        },
        {
          "internalType": "address",
          "name": "fundedBy",
          "type": "address"
        }
      ],
      "stateMutability": "view",
      "type": "function",
      "constant": true
    },
    {
      "inputs": [],
      "name": "addFunds",
      "outputs": [],
      "stateMutability": "payable",
      "type": "function",
      "payable": true
    },
    {
      "inputs": [
        {
          "internalType": "uint256",
          "name": "amount",
          "type": "uint256"
        }
      ],
      "name": "withdrawFunds",
      "outputs": [],
      "stateMutability": "nonpayable",
      "type": "function"
    },
    {
      "inputs": [
        {
          "internalType": "uint256",
          "name": "amount",
          "type": "uint256"
        }
      ],
      "name": "requestLoan",
      "outputs": [],
      "stateMutability": "nonpayable",
      "type": "function"
    },
    {
      "inputs": [
        {
          "internalType": "address",
          "name": "borrower",
          "type": "address"
        }
      ],
      "name": "getLoanDetails",
      "outputs": [
        {
          "components": [
            {
              "internalType": "address",
              "name": "borrower",
              "type": "address"
            },
            {
              "internalType": "uint256",
              "name": "requestedAmount",
              "type": "uint256"
            },
            {
              "internalType": "uint256",
              "name": "repayAmount",
              "type": "uint256"
            },
            {
              "internalType": "uint256",
              "name": "interestRate",
              "type": "uint256"
            },
            {
              "internalType": "enum SimpleLendingContract.LoanState",
              "name": "state",
              "type": "uint8"
            },
            {
              "internalType": "uint256",
              "name": "requestedDate",
              "type": "uint256"
            },
            {
              "internalType": "address",
              "name": "fundedBy",
              "type": "address"
            }
          ],
          "internalType": "struct SimpleLendingContract.Loan",
          "name": "",
          "type": "tuple"
        }
      ],
      "stateMutability": "view",
      "type": "function",
      "constant": true
    },
    {
      "inputs": [
        {
          "internalType": "address",
          "name": "borrower",
          "type": "address"
        }
      ],
      "name": "fundLoan",
      "outputs": [],
      "stateMutability": "nonpayable",
      "type": "function"
    },
    {
      "inputs": [
        {
          "internalType": "address",
          "name": "borrower",
          "type": "address"
        }
      ],
      "name": "getRepayAmount",
      "outputs": [
        {
          "internalType": "uint256",
          "name": "",
          "type": "uint256"
        }
      ],
      "stateMutability": "view",
      "type": "function",
      "constant": true
    },
    {
      "inputs": [],
      "name": "repayLoan",
      "outputs": [],
      "stateMutability": "payable",
      "type": "function",
      "payable": true
    },
    {
      "inputs": [],
      "name": "getContractBalance",
      "outputs": [
        {
          "internalType": "uint256",
          "name": "",
          "type": "uint256"
        }
      ],
      "stateMutability": "view",
      "type": "function",
      "constant": true
    }
  ],
  "bytecode": "0x608060405234801561001057600080fd5b506118c6806100206000396000f3fe60806040526004361061009c5760003560e01c8063a26759cb11610064578063a26759cb1461019e578063a27a944d146101a8578063ab2f0e51146101e5578063e48f6faf14610210578063e8a7da8e14610239578063f966ade7146102765761009c565b8063155dd5ee146100a15780636f9fb98a146100ca57806373b4086b146100f55780638d5d3429146101385780639be5b2bd14610161575b600080fd5b3480156100ad57600080fd5b506100c860048036038101906100c3919061113a565b610280565b005b3480156100d657600080fd5b506100df610441565b6040516100ec9190611176565b60405180910390f35b34801561010157600080fd5b5061011c600480360381019061011791906111ef565b610449565b60405161012f97969594939291906112a2565b60405180910390f35b34801561014457600080fd5b5061015f600480360381019061015a919061113a565b6104d8565b005b34801561016d57600080fd5b50610188600480360381019061018391906111ef565b6108e4565b6040516101959190611176565b60405180910390f35b6101a6610934565b005b3480156101b457600080fd5b506101cf60048036038101906101ca91906111ef565b6109e6565b6040516101dc9190611176565b60405180910390f35b3480156101f157600080fd5b506101fa6109fe565b6040516102079190611176565b60405180910390f35b34801561021c57600080fd5b50610237600480360381019061023291906111ef565b610a04565b005b34801561024557600080fd5b50610260600480360381019061025b91906111ef565b610c09565b60405161026d91906113cc565b60405180910390f35b61027e610d35565b005b600160003373ffffffffffffffffffffffffffffffffffffffff1673ffffffffffffffffffffffffffffffffffffffff16815260200190815260200160002054811115610302576040517f08c379a00000000000000000000000000000000000000000000000000000000081526004016102f990611444565b60405180910390fd5b600254811115610347576040517f08c379a000000000000000000000000000000000000000000000000000000000815260040161033e906114b0565b60405180910390fd5b61039981600160003373ffffffffffffffffffffffffffffffffffffffff1673ffffffffffffffffffffffffffffffffffffffff1681526020019081526020016000205461101490919063ffffffff16565b600160003373ffffffffffffffffffffffffffffffffffffffff1673ffffffffffffffffffffffffffffffffffffffff168152602001908152602001600020819055506103f18160025461101490919063ffffffff16565b6002819055503373ffffffffffffffffffffffffffffffffffffffff166108fc829081150290604051600060405180830381858888f1935050505015801561043d573d6000803e3d6000fd5b5050565b600047905090565b60006020528060005260406000206000915090508060000160009054906101000a900473ffffffffffffffffffffffffffffffffffffffff16908060010154908060020154908060030154908060040160009054906101000a900460ff16908060050154908060060160009054906101000a900473ffffffffffffffffffffffffffffffffffffffff16905087565b6000811161051b576040517f08c379a000000000000000000000000000000000000000000000000000000000815260040161051290611542565b60405180910390fd5b6000600381111561052f5761052e61122b565b5b60038111156105415761054061122b565b5b6000803373ffffffffffffffffffffffffffffffffffffffff1673ffffffffffffffffffffffffffffffffffffffff16815260200190815260200160002060040160009054906101000a900460ff1660038111156105a2576105a161122b565b5b146105e2576040517f08c379a00000000000000000000000000000000000000000000000000000000081526004016105d9906115ae565b60405180910390fd5b60006105ed8261103b565b90506040518060e001604052803373ffffffffffffffffffffffffffffffffffffffff168152602001838152602001828152602001600281526020016000600381111561063d5761063c61122b565b5b8152602001428152602001600073ffffffffffffffffffffffffffffffffffffffff168152506000803373ffffffffffffffffffffffffffffffffffffffff1673ffffffffffffffffffffffffffffffffffffffff16815260200190815260200160002060008201518160000160006101000a81548173ffffffffffffffffffffffffffffffffffffffff021916908373ffffffffffffffffffffffffffffffffffffffff16021790555060208201518160010155604082015181600201556060820151816003015560808201518160040160006101000a81548160ff021916908360038111156107315761073061122b565b5b021790555060a0820151816005015560c08201518160060160006101000a81548173ffffffffffffffffffffffffffffffffffffffff021916908373ffffffffffffffffffffffffffffffffffffffff16021790555090505081600254106108e0573373ffffffffffffffffffffffffffffffffffffffff166108fc839081150290604051600060405180830381858888f193505050501580156107d9573d6000803e3d6000fd5b5060016000803373ffffffffffffffffffffffffffffffffffffffff1673ffffffffffffffffffffffffffffffffffffffff16815260200190815260200160002060040160006101000a81548160ff0219169083600381111561083f5761083e61122b565b5b0217905550306000803373ffffffffffffffffffffffffffffffffffffffff1673ffffffffffffffffffffffffffffffffffffffff16815260200190815260200160002060060160006101000a81548173ffffffffffffffffffffffffffffffffffffffff021916908373ffffffffffffffffffffffffffffffffffffffff1602179055506108d98260025461101490919063ffffffff16565b6002819055505b5050565b6000806000808473ffffffffffffffffffffffffffffffffffffffff1673ffffffffffffffffffffffffffffffffffffffff16815260200190815260200160002090508060020154915050919050565b6109493460025461105890919063ffffffff16565b6002819055506109a134600160003373ffffffffffffffffffffffffffffffffffffffff1673ffffffffffffffffffffffffffffffffffffffff1681526020019081526020016000205461105890919063ffffffff16565b600160003373ffffffffffffffffffffffffffffffffffffffff1673ffffffffffffffffffffffffffffffffffffffff16815260200190815260200160002081905550565b60016020528060005260406000206000915090505481565b60025481565b60008060008373ffffffffffffffffffffffffffffffffffffffff1673ffffffffffffffffffffffffffffffffffffffff168152602001908152602001600020905060006003811115610a5a57610a5961122b565b5b8160040160009054906101000a900460ff166003811115610a7e57610a7d61122b565b5b14610abe576040517f08c379a0000000000000000000000000000000000000000000000000000000008152600401610ab590611640565b60405180910390fd5b80600101546002541015610b07576040517f08c379a0000000000000000000000000000000000000000000000000000000008152600401610afe906116d2565b60405180910390fd5b8060000160009054906101000a900473ffffffffffffffffffffffffffffffffffffffff1673ffffffffffffffffffffffffffffffffffffffff166108fc82600101549081150290604051600060405180830381858888f19350505050158015610b75573d6000803e3d6000fd5b5060018160040160006101000a81548160ff02191690836003811115610b9e57610b9d61122b565b5b0217905550338160060160006101000a81548173ffffffffffffffffffffffffffffffffffffffff021916908373ffffffffffffffffffffffffffffffffffffffff160217905550610bff816001015460025461101490919063ffffffff16565b6002819055505050565b610c11611084565b60008060008473ffffffffffffffffffffffffffffffffffffffff1673ffffffffffffffffffffffffffffffffffffffff16815260200190815260200160002090506040518060e001604052808260000160009054906101000a900473ffffffffffffffffffffffffffffffffffffffff1673ffffffffffffffffffffffffffffffffffffffff1681526020018260010154815260200182600201548152602001826003015481526020018260040160009054906101000a900460ff166003811115610ce057610cdf61122b565b5b8152602001826005015481526020018260060160009054906101000a900473ffffffffffffffffffffffffffffffffffffffff1673ffffffffffffffffffffffffffffffffffffffff16815250915050919050565b60008060003373ffffffffffffffffffffffffffffffffffffffff1673ffffffffffffffffffffffffffffffffffffffff168152602001908152602001600020905060016003811115610d8b57610d8a61122b565b5b8160040160009054906101000a900460ff166003811115610daf57610dae61122b565b5b14610def576040517f08c379a0000000000000000000000000000000000000000000000000000000008152600401610de69061173e565b60405180910390fd5b80600201543414610e35576040517f08c379a0000000000000000000000000000000000000000000000000000000008152600401610e2c906117aa565b60405180910390fd5b610e4a3460025461105890919063ffffffff16565b600281905550600073ffffffffffffffffffffffffffffffffffffffff168160060160009054906101000a900473ffffffffffffffffffffffffffffffffffffffff1673ffffffffffffffffffffffffffffffffffffffff1614158015610f0157503073ffffffffffffffffffffffffffffffffffffffff168160060160009054906101000a900473ffffffffffffffffffffffffffffffffffffffff1673ffffffffffffffffffffffffffffffffffffffff1614155b15610fe457610f7c34600160008460060160009054906101000a900473ffffffffffffffffffffffffffffffffffffffff1673ffffffffffffffffffffffffffffffffffffffff1673ffffffffffffffffffffffffffffffffffffffff1681526020019081526020016000205461105890919063ffffffff16565b600160008360060160009054906101000a900473ffffffffffffffffffffffffffffffffffffffff1673ffffffffffffffffffffffffffffffffffffffff1673ffffffffffffffffffffffffffffffffffffffff168152602001908152602001600020819055505b60028160040160006101000a81548160ff0219169083600381111561100c5761100b61122b565b5b021790555050565b600082821115611027576110266117ca565b5b81836110339190611828565b905092915050565b6000671bc16d674ec8000082611051919061185c565b9050919050565b6000808284611067919061185c565b90508381101561107a576110796117ca565b5b8091505092915050565b6040518060e00160405280600073ffffffffffffffffffffffffffffffffffffffff168152602001600081526020016000815260200160008152602001600060038111156110d5576110d461122b565b5b815260200160008152602001600073ffffffffffffffffffffffffffffffffffffffff1681525090565b600080fd5b6000819050919050565b61111781611104565b811461112257600080fd5b50565b6000813590506111348161110e565b92915050565b6000602082840312156111505761114f6110ff565b5b600061115e84828501611125565b91505092915050565b61117081611104565b82525050565b600060208201905061118b6000830184611167565b92915050565b600073ffffffffffffffffffffffffffffffffffffffff82169050919050565b60006111bc82611191565b9050919050565b6111cc816111b1565b81146111d757600080fd5b50565b6000813590506111e9816111c3565b92915050565b600060208284031215611205576112046110ff565b5b6000611213848285016111da565b91505092915050565b611225816111b1565b82525050565b7f4e487b7100000000000000000000000000000000000000000000000000000000600052602160045260246000fd5b6004811061126b5761126a61122b565b5b50565b600081905061127c8261125a565b919050565b600061128c8261126e565b9050919050565b61129c81611281565b82525050565b600060e0820190506112b7600083018a61121c565b6112c46020830189611167565b6112d16040830188611167565b6112de6060830187611167565b6112eb6080830186611293565b6112f860a0830185611167565b61130560c083018461121c565b98975050505050505050565b61131a816111b1565b82525050565b61132981611104565b82525050565b61133881611281565b82525050565b60e0820160008201516113546000850182611311565b5060208201516113676020850182611320565b50604082015161137a6040850182611320565b50606082015161138d6060850182611320565b5060808201516113a0608085018261132f565b5060a08201516113b360a0850182611320565b5060c08201516113c660c0850182611311565b50505050565b600060e0820190506113e1600083018461133e565b92915050565b600082825260208201905092915050565b7f496e73756666696369656e742062616c616e636520746f207769746864726177600082015250565b600061142e6020836113e7565b9150611439826113f8565b602082019050919050565b6000602082019050818103600083015261145d81611421565b9050919050565b7f496e73756666696369656e7420706f6f6c206c69717569646974790000000000600082015250565b600061149a601b836113e7565b91506114a582611464565b602082019050919050565b600060208201905081810360008301526114c98161148d565b9050919050565b7f4c6f616e20616d6f756e74206d7573742062652067726561746572207468616e60008201527f2030000000000000000000000000000000000000000000000000000000000000602082015250565b600061152c6022836113e7565b9150611537826114d0565b604082019050919050565b6000602082019050818103600083015261155b8161151f565b9050919050565b7f50726576696f7573206c6f616e206d75737420626520636c6f73656400000000600082015250565b6000611598601c836113e7565b91506115a382611562565b602082019050919050565b600060208201905081810360008301526115c78161158b565b9050919050565b7f4c6f616e206973206e6f7420696e20746865207265717565737465642073746160008201527f7465000000000000000000000000000000000000000000000000000000000000602082015250565b600061162a6022836113e7565b9150611635826115ce565b604082019050919050565b600060208201905081810360008301526116598161161d565b9050919050565b7f496e73756666696369656e742066756e647320746f2066756e6420746865206c60008201527f6f616e0000000000000000000000000000000000000000000000000000000000602082015250565b60006116bc6023836113e7565b91506116c782611660565b604082019050919050565b600060208201905081810360008301526116eb816116af565b9050919050565b7f4c6f616e206973206e6f7420696e207468652066756e64656420737461746500600082015250565b6000611728601f836113e7565b9150611733826116f2565b602082019050919050565b600060208201905081810360008301526117578161171b565b9050919050565b7f496e636f72726563742072657061796d656e7420616d6f756e74000000000000600082015250565b6000611794601a836113e7565b915061179f8261175e565b602082019050919050565b600060208201905081810360008301526117c381611787565b9050919050565b7f4e487b7100000000000000000000000000000000000000000000000000000000600052600160045260246000fd5b7f4e487b7100000000000000000000000000000000000000000000000000000000600052601160045260246000fd5b600061183382611104565b915061183e83611104565b9250828203905081811115611856576118556117f9565b5b92915050565b600061186782611104565b915061187283611104565b925082820190508082111561188a576118896117f9565b5b9291505056fea264697066735822122006e7cccebe43b47bc81c981593199d7aedf64dd4c6e27adae9eaf60b9b78118464736f6c63430008130033",
  "immutableReferences": {},
  "source": "// SPDX-License-Identifier: MIT\r\npragma solidity ^0.8.19;\r\n\r\nimport './SafeMath.sol';\r\n\r\ncontract SimpleLendingContract {\r\n\r\n    using SafeMath for uint;\r\n\r\n    // Enum to represent the state of the loan\r\n    enum LoanState { Requested, Funded, Repaid, Defaulted }\r\n\r\n    // Struct to represent the loan details\r\n    struct Loan {\r\n        address borrower;\r\n        uint requestedAmount;\r\n        uint repayAmount;\r\n        uint interestRate; // in percentage\r\n        LoanState state;\r\n        uint requestedDate;\r\n        address fundedBy; // Track who funded this loan\r\n    }\r\n\r\n    // Mapping to store loans by borrower address\r\n    mapping(address => Loan) public loans;\r\n\r\n    // Mapping to track each lender's balance in the pool\r\n    mapping(address => uint) public lenderBalances;\r\n\r\n    // Variable to store the available balance in the contract\r\n    uint public availableBalance;\r\n\r\n    // Function to add funds to the contract\r\n    function addFunds() public payable {\r\n        availableBalance = availableBalance.add(msg.value);\r\n        lenderBalances[msg.sender] = lenderBalances[msg.sender].add(msg.value);\r\n    }\r\n\r\n    // Function for lenders to withdraw their money\r\n    function withdrawFunds(uint amount) public {\r\n        require(amount <= lenderBalances[msg.sender], \"Insufficient balance to withdraw\");\r\n        require(amount <= availableBalance, \"Insufficient pool liquidity\");\r\n\r\n        lenderBalances[msg.sender] = lenderBalances[msg.sender].sub(amount);\r\n        availableBalance = availableBalance.sub(amount);\r\n        \r\n        payable(msg.sender).transfer(amount);\r\n    }\r\n\r\n    // Function to request a loan\r\n    // function requestLoan(uint amount) public {\r\n    //     require(amount > 0, \"Loan amount must be greater than 0\");\r\n\r\n    //     // Calculate repay amount based on the loan details\r\n    //     uint repayAmount = calculateRepayAmount(amount);\r\n\r\n    //     // Create a new loan\r\n    //     loans[msg.sender] = Loan({\r\n    //         borrower: msg.sender,\r\n    //         requestedAmount: amount,\r\n    //         repayAmount: repayAmount,\r\n    //         interestRate: 2,\r\n    //         state: LoanState.Requested,\r\n    //         requestedDate: block.timestamp\r\n    //     });\r\n    // }\r\n\r\n    function requestLoan(uint amount) public {\r\n        require(amount > 0, \"Loan amount must be greater than 0\");\r\n        require(loans[msg.sender].state == LoanState(0), \"Previous loan must be closed\"); // Optional: restrict multiple loans\r\n\r\n        // Calculate repay amount\r\n        uint repayAmount = calculateRepayAmount(amount);\r\n\r\n        // Create a new loan\r\n        loans[msg.sender] = Loan({\r\n            borrower: msg.sender,\r\n            requestedAmount: amount,\r\n            repayAmount: repayAmount,\r\n            interestRate: 2,\r\n            state: LoanState.Requested,\r\n            requestedDate: block.timestamp,\r\n            fundedBy: address(0) // Not funded yet\r\n        });\r\n\r\n        // Auto fund the loan if enough balance\r\n        if (availableBalance >= amount) {\r\n            // Transfer the loan amount to borrower\r\n            payable(msg.sender).transfer(amount);\r\n\r\n            // Update state\r\n            loans[msg.sender].state = LoanState.Funded;\r\n            loans[msg.sender].fundedBy = address(this); // Funded by the general pool\r\n\r\n            // Reduce from pool\r\n            availableBalance = availableBalance.sub(amount);\r\n        }\r\n    }\r\n\r\n\r\n\r\n\r\n\r\n    // Function to get loan details in a more readable format\r\n    function getLoanDetails(address borrower) external view returns (Loan memory) {\r\n        Loan storage loan = loans[borrower];\r\n        return Loan({\r\n            borrower: loan.borrower,\r\n            requestedAmount: loan.requestedAmount,\r\n            repayAmount: loan.repayAmount,\r\n            interestRate: loan.interestRate,\r\n            state: loan.state,\r\n            requestedDate: loan.requestedDate,\r\n            fundedBy: loan.fundedBy\r\n        });\r\n    }\r\n\r\n    // Function to fund a loan\r\n    function fundLoan(address borrower) public {\r\n        // Get the loan details\r\n        Loan storage loan = loans[borrower];\r\n\r\n        // Check if the loan is in the requested state\r\n        require(loan.state == LoanState.Requested, \"Loan is not in the requested state\");\r\n\r\n        // Check if there are sufficient funds to fund the loan\r\n        require(availableBalance >= loan.requestedAmount, \"Insufficient funds to fund the loan\");\r\n\r\n        // Transfer funds from contract to borrower\r\n        payable(loan.borrower).transfer(loan.requestedAmount);\r\n\r\n        // Update loan state to funded\r\n        loan.state = LoanState.Funded;\r\n        loan.fundedBy = msg.sender; // Mark this lender as the funder\r\n\r\n        // Deduct the funded amount from available balance\r\n        availableBalance = availableBalance.sub(loan.requestedAmount);\r\n    }\r\n\r\n    // Function to get the repay amount for a loan\r\n    function getRepayAmount(address borrower) external view returns (uint) {\r\n        Loan storage loan = loans[borrower];\r\n        return loan.repayAmount;\r\n    }\r\n\r\n    // Function to repay a loan\r\n    function repayLoan() public payable {\r\n        // Get the loan details\r\n        Loan storage loan = loans[msg.sender];\r\n\r\n        // Check if the loan is in the funded state\r\n        require(loan.state == LoanState.Funded, \"Loan is not in the funded state\");\r\n\r\n        // Check if the repayment amount is sufficient\r\n        require(msg.value == loan.repayAmount, \"Incorrect repayment amount\");\r\n\r\n        // Return money to the pool\r\n        availableBalance = availableBalance.add(msg.value);\r\n\r\n        // If it was funded by a specific lender, credit them with the repayment + interest\r\n        if (loan.fundedBy != address(0) && loan.fundedBy != address(this)) {\r\n            lenderBalances[loan.fundedBy] = lenderBalances[loan.fundedBy].add(msg.value);\r\n        }\r\n\r\n        // Update loan state to repaid\r\n        loan.state = LoanState.Repaid;\r\n    }\r\n\r\n    // Function to calculate the repay amount based on loan details\r\n    function calculateRepayAmount(uint amount) internal pure returns (uint) {\r\n        // Add the amount and a constant interest of 2 ethers\r\n        return amount + 2 ether;\r\n    }\r\n\r\n    function getContractBalance() public view returns (uint256) {\r\n        return address(this).balance;\r\n    }\r\n}\r\n",
  "sourcePath": "C:\\Users\\khali\\OneDrive\\Desktop\\Projects\\Decentralized ULI\\Bc-Ca3\\decentralized-uli\\contracts\\SimpleLendingContract.sol",
  "compiler": {
    "name": "solc",
    "version": "0.8.19+commit.7dd6d404.Emscripten.clang"
  },
  "schemaVersion": "3.4.16",
  "updatedAt": "2026-04-06T14:01:00.758Z",
  "networkType": "ethereum",
  "devdoc": {
    "kind": "dev",
    "methods": {},
    "version": 1
  },
  "userdoc": {
    "kind": "user",
    "methods": {},
    "version": 1
  }
}